:100000000C942A000C943C000C943C000C943C0092
:100010000C943C000C943C000C943C000C943C0070
:100020000C943C000C943C000C943C000C943C0060
:100030000C945E020C943C000C943C000C943C002C
:100040000C943C000C943C000C943C000C943C0040
:100050000C943C0011241FBECFE5D8E0DEBFCDBF1D
:1000600020E0A0E6B0E001C01D92A236B207E1F7A1
:100070000E94CF010C9488020C9400008130A9F1F9
:1000800038F0823009F45EC0833009F488C00895E6
:10009000413081F018F04330C1F0089581E090E0E4
:1000A00002C0880F991F6A95E2F780959AB3892359
:1000B0008ABB089581E090E002C0880F991F6A957D
:1000C000E2F79AB3892B8ABB089581E090E002C0E1
:1000D000880F991F6A95E2F7982F90952AB392237B
:1000E0009ABB9BB3892B8BBB0895413081F018F0EC
:1000F0004330C1F0089581E090E002C0880F991F5D
:100100006A95E2F7809597B3892387BB089581E0CC
:1001100090E002C0880F991F6A95E2F797B3892B88
:1001200087BB089581E090E002C0880F991F6A950F
:10013000E2F7982F909527B3922397BB98B3892B1A
:1001400088BB0895413081F018F04330C1F0089524
:1001500081E090E002C0880F991F6A95E2F78095D0
:1001600094B3892384BB089581E090E002C0880F96
:10017000991F6A95E2F794B3892B84BB089581E0B7
:1001800090E002C0880F991F6A95E2F7982F90952A
:1001900024B3922394BB95B3892B85BB089541303A
:1001A00081F018F04330C1F0089581E090E002C082
:1001B000880F991F6A95E2F7809591B3892381BBD7
:1001C000089581E090E002C0880F991F6A95E2F7D8
:1001D00091B3892B81BB089581E090E002C0880F24
:1001E000991F6A95E2F7982F909521B3922391BBBE
:1001F00092B3892B82BB0895813019F130F082309F
:10020000E1F1833009F455C00895442319F04130D9
:1002100069F0089581E090E002C0880F991F6A9507
:10022000E2F780959BB389238BBB089581E090E032
:1002300002C0880F991F6A95E2F79BB3892B8BBB8D
:100240000895442319F0413069F0089581E090E069
:1002500002C0880F991F6A95E2F7809598B38923A9
:1002600088BB089581E090E002C0880F991F6A95CD
:10027000E2F798B3892B88BB0895442319F04130E5
:1002800069F0089581E090E002C0880F991F6A9597
:10029000E2F7809595B3892385BB089581E090E0CE
:1002A00002C0880F991F6A95E2F795B3892B85BB29
:1002B0000895442319F0413069F0089581E090E0F9
:1002C00002C0880F991F6A95E2F7809592B389233F
:1002D00082BB089581E090E002C0880F991F6A9563
:1002E000E2F792B3892B82BB0895CF93DF9300D0BE
:1002F0001F92CDB7DEB7AC011A8219820EC01B82E5
:1003000003C09B819F5F9B839B819F3FD1F7298186
:100310003A812F5F3F4F3A83298329813A812417FD
:10032000350768F30F900F900F90DF91CF910895EC
:10033000CF93DF93CDB7DEB72A970FB6F894DEBF21
:100340000FBECDBF19828FEF8ABB81E08F831E82E3
:100350001D821B821C8218861A86198680E18A8378
:10036000CE0102960E94190219820DC084E690E027
:100370000E94750161E0CE0101960E9455028BBB7F
:1003800089818F5F89838981853680F32A960FB6AC
:10039000F894DEBF0FBECDBFDF91CF9108950E94CC
:1003A000980180E090E00895E0916000F091610094
:1003B0008081803121F541E067E081E00E943E00CC
:1003C00040E067E081E00E94FC0043E066E081E0FD
:1003D0000E943E0041E065E081E00E943E0040E076
:1003E00065E081E00E94FC0041E064E081E00E9461
:1003F0003E0040E064E081E00E94FC00089543E09C
:1004000067E081E00E943E0041E066E081E00E94FA
:100410003E0040E066E081E00E94FC0040E065E0D4
:1004200081E00E943E0040E064E081E00E943E00E6
:100430000895CF93DF93EC01909361008093600067
:100440000E94D4019DB18881892B8DB99DB189818C
:10045000892B8DB99DB18B81892B8DB99DB18C81F3
:10046000892B8DB98A81813041F49DB18D81892B91
:100470008DB98EB181608EB904C09DB18D81892BFB
:100480008DB98E81882341F08FB780688FBF9DB171
:100490008E81892B8DB903C09DB1892B8DB98DB10A
:1004A00080648DB9DF91CF910895FC0180818FB96F
:1004B000613011F4779BFECF8FB108951F920F9298
:1004C0000FB60F9211242F933F934F935F936F9327
:1004D0007F938F939F93AF93BF93EF93FF93E0919D
:1004E0006000F09161000780F085E02D0995FF9193
:1004F000EF91BF91AF919F918F917F916F915F919C
:100500004F913F912F910F900FBE0F901F90189514
:04051000F894FFCF8D
:00000001FF
