S01700004763634170706C69636174696F6E312E737265635B
S11300000C942A000C943C000C943C000C943C008E
S11300100C943C000C943C000C943C000C943C006C
S11300200C943C000C943C000C94BA000C94930087
S11300300C943C000C943C000C943C000C943C004C
S11300400C943C000C943C000C943C000C943C003C
S11300500C943C0011241FBECFE5D8E0DEBFCDBF19
S113006020E0A0E6B0E001C01D92A736B207E1F798
S11300700E943E000C94E1000C9400000E94430096
S113008080E090E00895CF93DF9300D000D01F92DA
S1130090CDB7DEB787B3886087BB88E7898382E002
S11300A08A831B821D821C82CE0101960E945C0001
S11300B084E60E948800FCCFCF93DF93EC0185E0B7
S11300C0FE01A2E6B0E001900D928A95E1F793B7A4
S11300D08881892B83BF8881883029F0882319F08F
S11300E08CB788608CBF93B78981892B83BF99B7FC
S11300F08A81892B89BF8A81882309F078948B812E
S11301009C819093610080936000DF91CF9108956A
S113011090916200983611F48CBF0895983711F4C9
S113012080958CBF08951F920F920FB60F921124E1
S11301302F933F934F935F936F937F938F939F93EB
S1130140AF93BF93EF93FF93E0916000F091610050
S11301500995FF91EF91BF91AF919F918F917F91FD
S11301606F915F914F913F912F910F900FBE0F9020
S11301701F9018951F920F920FB60F9211242F9370
S11301803F934F935F936F937F938F939F93AF931B
S1130190BF93EF93FF93E0916000F09161000995A4
S11301A0FF91EF91BF91AF919F918F917F916F914B
S11301B05F914F913F912F910F900FBE0F901F9021
S10901C01895F894FFCF2E
S9030000FC
