S01C000041546D65676133325F554152545F4472697665722E737265630E
S11300000C942A000C9447000C9447000C9447006D
S11300100C9447000C9447000C9447000C94470040
S11300200C9447000C9447000C9447000C94470030
S11300300C9447000C9447000C9447000C94470020
S11300400C9447000C9447000C9447000C94470010
S11300500C94470011241FBECFE5D8E0DEBFCDBF0E
S113006010E0A0E6B0E0E8EEF2E002C005900D92E8
S1130070AA37B107D9F720E0AAE7B0E001C01D9282
S1130080AD3AB207E1F70E9412010C9472010C948C
S1130090000088B3877F88BB83ED90E30197F1F775
S11300A000C0000088B3886088BB08958AB38F704D
S11300B08ABB88B384608D7F88BB0E94490088B363
S11300C08B7F88BB0895CF93C82F8BB38F709C2FE1
S11300D0907F892B8BBB88B3897F88BB0E944900A2
S11300E087EA91E60197F1F700C000002BB330E1F5
S11300F0C39FC0011124922F9F70892B8BBB88B39F
S1130100897F88BB0E944900CF910895CF93C82F5F
S11301108BB38F709C2F907F892B8BBB88B38260AD
S11301208B7F88BB0E9449002BB330E1C39FC00181
S11301301124922F9F70892B8BBB88B382608B7F95
S113014088BB0E944900CF91089581E00E9463001A
S1130150089587E893E10197F1F700C000000E9439
S1130160560087B38E6087BB88B3817F88BB0E94AB
S1130170490085EA9EE00197F1F700C000000E9463
S1130180A50082E00E94630088E20E94630086E08A
S11301900E94630080E80E9463008FE00E94630075
S11301A00895811107C0603168F480E8860F0E94C9
S11301B063000895813031F4603120F480EC860FBF
S11301C00E94630008950F931F93CF93DF93EC0174
S11301D021C080917A00803121F460E081E00E94A6
S11301E0D1008E010F5F1F4F88810E94860080918D
S11301F07A008F5F80937A0080917A00803248F091
S113020081E00E94630060E080E00E94D1001092CF
S11302107A00E80188818111DCCFDF91CF911F91B1
S11302200F9108950E94A90080E690E00E94E300E7
S11302300E9423018FE690E00E944D010E945A0122
S11302400E94E300FBCF8BB18D7F8BB910BC83E39D
S113025089B980B58F7B80BD80B5826080BD80B553
S1130260846080BD8AB18B7F8AB980B58F7E80BD62
S113027080B58F7D80BD80B5877F80BD8AB1806168
S11302808AB98AB188608AB908955D9BFECF8CB91A
S113029008955F9BFECF8CB10895CF93DF93EC015B
S11302A003C00E944501219688818111FACFDF9114
S11302B0CF910895CF930E944901C0E008C0EC2F6C
S11302C0F0E0E558FF4F80830E944901CF5F8332FD
S11302D0B1F7EC2FF0E0E558FF4F10828BE790E088
S10B02E0CF910895F894FFCFBB
S11302E86C6561726E20696E20646570746800556F
S10D02F841525420494E49540000BD
S9030000FC
